{
  "contractName": "BettingSystem",
  "abi": [
    {
      "inputs": [
        {
          "internalType": "string[]",
          "name": "_allowedTeams",
          "type": "string[]"
        }
      ],
      "stateMutability": "nonpayable",
      "type": "constructor"
    },
    {
      "anonymous": false,
      "inputs": [
        {
          "indexed": false,
          "internalType": "address",
          "name": "to",
          "type": "address"
        },
        {
          "indexed": false,
          "internalType": "uint256",
          "name": "value",
          "type": "uint256"
        }
      ],
      "name": "PayoutTransfer",
      "type": "event"
    },
    {
      "inputs": [
        {
          "internalType": "uint256",
          "name": "",
          "type": "uint256"
        }
      ],
      "name": "allowedTeams",
      "outputs": [
        {
          "internalType": "string",
          "name": "",
          "type": "string"
        }
      ],
      "stateMutability": "view",
      "type": "function",
      "constant": true
    },
    {
      "inputs": [
        {
          "internalType": "string",
          "name": "_team",
          "type": "string"
        }
      ],
      "name": "placeBet",
      "outputs": [],
      "stateMutability": "payable",
      "type": "function",
      "payable": true
    },
    {
      "inputs": [
        {
          "internalType": "string",
          "name": "_team",
          "type": "string"
        }
      ],
      "name": "getTeamBets",
      "outputs": [
        {
          "components": [
            {
              "internalType": "address",
              "name": "originAddress",
              "type": "address"
            },
            {
              "internalType": "string",
              "name": "team",
              "type": "string"
            },
            {
              "internalType": "uint256",
              "name": "value",
              "type": "uint256"
            }
          ],
          "internalType": "struct BettingSystem.Bet[]",
          "name": "",
          "type": "tuple[]"
        }
      ],
      "stateMutability": "view",
      "type": "function",
      "constant": true
    },
    {
      "inputs": [],
      "name": "getTotalBetsBalance",
      "outputs": [
        {
          "internalType": "uint256",
          "name": "",
          "type": "uint256"
        }
      ],
      "stateMutability": "view",
      "type": "function",
      "constant": true
    },
    {
      "inputs": [
        {
          "internalType": "string",
          "name": "_team",
          "type": "string"
        }
      ],
      "name": "getTeamBetInfo",
      "outputs": [
        {
          "components": [
            {
              "internalType": "uint256",
              "name": "totalValue",
              "type": "uint256"
            },
            {
              "internalType": "uint256",
              "name": "totalBets",
              "type": "uint256"
            },
            {
              "internalType": "bool",
              "name": "isSet",
              "type": "bool"
            }
          ],
          "internalType": "struct BettingSystem.TeamInfo",
          "name": "",
          "type": "tuple"
        }
      ],
      "stateMutability": "view",
      "type": "function",
      "constant": true
    },
    {
      "inputs": [
        {
          "internalType": "string",
          "name": "_winnerTeam",
          "type": "string"
        }
      ],
      "name": "pickWinner",
      "outputs": [],
      "stateMutability": "nonpayable",
      "type": "function"
    },
    {
      "inputs": [],
      "name": "emergencyWithdraw",
      "outputs": [],
      "stateMutability": "nonpayable",
      "type": "function"
    }
  ],
  "bytecode": "0x60806040526001600260006101000a81548160ff0219169083151502179055503480156200002c57600080fd5b506040516200205538038062002055833981810160405281019062000052919062000589565b33600260016101000a81548173ffffffffffffffffffffffffffffffffffffffff021916908373ffffffffffffffffffffffffffffffffffffffff1602179055508060039080519060200190620000ab9291906200016b565b5060005b8151811015620001635760405180606001604052806000815260200160008152602001600115158152506001838381518110620000f157620000f0620005da565b5b602002602001015160405162000108919062000656565b9081526020016040518091039020600082015181600001556020820151816001015560408201518160020160006101000a81548160ff02191690831515021790555090505080806200015a90620006a8565b915050620000af565b50506200075b565b828054828255906000526020600020908101928215620001bf579160200282015b82811115620001be578251829080519060200190620001ad929190620001d2565b50916020019190600101906200018c565b5b509050620001ce919062000263565b5090565b828054620001e09062000725565b90600052602060002090601f01602090048101928262000204576000855562000250565b82601f106200021f57805160ff191683800117855562000250565b8280016001018555821562000250579182015b828111156200024f57825182559160200191906001019062000232565b5b5090506200025f91906200028b565b5090565b5b808211156200028757600081816200027d9190620002aa565b5060010162000264565b5090565b5b80821115620002a65760008160009055506001016200028c565b5090565b508054620002b89062000725565b6000825580601f10620002cc5750620002ed565b601f016020900490600052602060002090810190620002ec91906200028b565b5b50565b6000604051905090565b600080fd5b600080fd5b600080fd5b6000601f19601f8301169050919050565b7f4e487b7100000000000000000000000000000000000000000000000000000000600052604160045260246000fd5b620003548262000309565b810181811067ffffffffffffffff821117156200037657620003756200031a565b5b80604052505050565b60006200038b620002f0565b905062000399828262000349565b919050565b600067ffffffffffffffff821115620003bc57620003bb6200031a565b5b602082029050602081019050919050565b600080fd5b600080fd5b600067ffffffffffffffff821115620003f557620003f46200031a565b5b620004008262000309565b9050602081019050919050565b60005b838110156200042d57808201518184015260208101905062000410565b838111156200043d576000848401525b50505050565b60006200045a6200045484620003d7565b6200037f565b905082815260208101848484011115620004795762000478620003d2565b5b620004868482856200040d565b509392505050565b600082601f830112620004a657620004a562000304565b5b8151620004b884826020860162000443565b91505092915050565b6000620004d8620004d2846200039e565b6200037f565b90508083825260208201905060208402830185811115620004fe57620004fd620003cd565b5b835b818110156200054c57805167ffffffffffffffff81111562000527576200052662000304565b5b8086016200053689826200048e565b8552602085019450505060208101905062000500565b5050509392505050565b600082601f8301126200056e576200056d62000304565b5b815162000580848260208601620004c1565b91505092915050565b600060208284031215620005a257620005a1620002fa565b5b600082015167ffffffffffffffff811115620005c357620005c2620002ff565b5b620005d18482850162000556565b91505092915050565b7f4e487b7100000000000000000000000000000000000000000000000000000000600052603260045260246000fd5b600081519050919050565b600081905092915050565b60006200062c8262000609565b62000638818562000614565b93506200064a8185602086016200040d565b80840191505092915050565b60006200066482846200061f565b915081905092915050565b7f4e487b7100000000000000000000000000000000000000000000000000000000600052601160045260246000fd5b6000819050919050565b6000620006b5826200069e565b91507fffffffffffffffffffffffffffffffffffffffffffffffffffffffffffffffff821415620006eb57620006ea6200066f565b5b600182019050919050565b7f4e487b7100000000000000000000000000000000000000000000000000000000600052602260045260246000fd5b600060028204905060018216806200073e57607f821691505b60208210811415620007555762000754620006f6565b5b50919050565b6118ea806200076b6000396000f3fe6080604052600436106100705760003560e01c806397bfeb881161004e57806397bfeb8814610106578063b560c37914610122578063d02afda01461015f578063db2e21bc1461019c57610070565b806327e250691461007557806365bc0bc51461009e57806385f8217f146100c9575b600080fd5b34801561008157600080fd5b5061009c60048036038101906100979190610df3565b6101b3565b005b3480156100aa57600080fd5b506100b3610544565b6040516100c09190610e55565b60405180910390f35b3480156100d557600080fd5b506100f060048036038101906100eb9190610df3565b61054c565b6040516100fd919061105a565b60405180910390f35b610120600480360381019061011b9190610df3565b6106bb565b005b34801561012e57600080fd5b5061014960048036038101906101449190610df3565b610961565b60405161015691906110d9565b60405180910390f35b34801561016b57600080fd5b5061018660048036038101906101819190611120565b6109c8565b6040516101939190611197565b60405180910390f35b3480156101a857600080fd5b506101b1610a74565b005b600260019054906101000a900473ffffffffffffffffffffffffffffffffffffffff1673ffffffffffffffffffffffffffffffffffffffff163373ffffffffffffffffffffffffffffffffffffffff1614610243576040517f08c379a000000000000000000000000000000000000000000000000000000000815260040161023a9061122b565b60405180910390fd5b60011515600260009054906101000a900460ff16151514610299576040517f08c379a0000000000000000000000000000000000000000000000000000000008152600401610290906112bd565b60405180910390fd5b600080826040516102aa9190611319565b9081526020016040518091039020805480602002602001604051908101604052809291908181526020016000905b828210156103fc57838290600052602060002090600302016040518060600160405290816000820160009054906101000a900473ffffffffffffffffffffffffffffffffffffffff1673ffffffffffffffffffffffffffffffffffffffff1673ffffffffffffffffffffffffffffffffffffffff1681526020016001820180546103619061135f565b80601f016020809104026020016040519081016040528092919081815260200182805461038d9061135f565b80156103da5780601f106103af576101008083540402835291602001916103da565b820191906000526020600020905b8154815290600101906020018083116103bd57829003601f168201915b50505050508152602001600282015481525050815260200190600101906102d8565b50505050905060005b815181101561053f57600082828151811061042357610422611391565b5b60200260200101519050600061046082604001516001876040516104479190611319565b9081526020016040518091039020600001546004610b76565b9050600061271082610470610544565b61047a91906113ef565b6104849190611478565b9050826000015173ffffffffffffffffffffffffffffffffffffffff166108fc829081150290604051600060405180830381858888f193505050501580156104d0573d6000803e3d6000fd5b507f821ddc8b7d1973b157bbd225a9cbf7a2ac5a31f2f3bdf7488b09a6003d8cd4ab8360000151826040516105069291906114b8565b60405180910390a16000600260006101000a81548160ff0219169083151502179055505050508080610537906114e1565b915050610405565b505050565b600047905090565b606060008260405161055e9190611319565b9081526020016040518091039020805480602002602001604051908101604052809291908181526020016000905b828210156106b057838290600052602060002090600302016040518060600160405290816000820160009054906101000a900473ffffffffffffffffffffffffffffffffffffffff1673ffffffffffffffffffffffffffffffffffffffff1673ffffffffffffffffffffffffffffffffffffffff1681526020016001820180546106159061135f565b80601f01602080910402602001604051908101604052809291908181526020018280546106419061135f565b801561068e5780601f106106635761010080835404028352916020019161068e565b820191906000526020600020905b81548152906001019060200180831161067157829003601f168201915b505050505081526020016002820154815250508152602001906001019061058c565b505050509050919050565b60011515600260009054906101000a900460ff16151514610711576040517f08c379a0000000000000000000000000000000000000000000000000000000008152600401610708906112bd565b60405180910390fd5b6064341015610755576040517f08c379a000000000000000000000000000000000000000000000000000000000815260040161074c9061159c565b60405180910390fd5b6000815111610799576040517f08c379a00000000000000000000000000000000000000000000000000000000081526004016107909061162e565b60405180910390fd5b6001816040516107a99190611319565b908152602001604051809103902060020160009054906101000a900460ff16610807576040517f08c379a00000000000000000000000000000000000000000000000000000000081526004016107fe906116c0565b60405180910390fd5b6000816040516108179190611319565b908152602001604051809103902060405180606001604052803373ffffffffffffffffffffffffffffffffffffffff16815260200183815260200134815250908060018154018082558091505060019003906000526020600020906003020160009091909190915060008201518160000160006101000a81548173ffffffffffffffffffffffffffffffffffffffff021916908373ffffffffffffffffffffffffffffffffffffffff16021790555060208201518160010190805190602001906108e2929190610bd3565b50604082015181600201555050346001826040516109009190611319565b9081526020016040518091039020600001600082825461092091906116e0565b925050819055506001816040516109379190611319565b90815260200160405180910390206001016000815480929190610959906114e1565b919050555050565b610969610c59565b6001826040516109799190611319565b908152602001604051809103902060405180606001604052908160008201548152602001600182015481526020016002820160009054906101000a900460ff1615151515815250509050919050565b600381815481106109d857600080fd5b9060005260206000200160009150905080546109f39061135f565b80601f0160208091040260200160405190810160405280929190818152602001828054610a1f9061135f565b8015610a6c5780601f10610a4157610100808354040283529160200191610a6c565b820191906000526020600020905b815481529060010190602001808311610a4f57829003601f168201915b505050505081565b600260019054906101000a900473ffffffffffffffffffffffffffffffffffffffff1673ffffffffffffffffffffffffffffffffffffffff163373ffffffffffffffffffffffffffffffffffffffff1614610b04576040517f08c379a0000000000000000000000000000000000000000000000000000000008152600401610afb9061122b565b60405180910390fd5b600260019054906101000a900473ffffffffffffffffffffffffffffffffffffffff1673ffffffffffffffffffffffffffffffffffffffff166108fc610b48610544565b9081150290604051600060405180830381858888f19350505050158015610b73573d6000803e3d6000fd5b50565b600080600183610b8691906116e0565b600a610b929190611869565b85610b9d91906113ef565b90506000600a60058684610bb19190611478565b610bbb91906116e0565b610bc59190611478565b905080925050509392505050565b828054610bdf9061135f565b90600052602060002090601f016020900481019282610c015760008555610c48565b82601f10610c1a57805160ff1916838001178555610c48565b82800160010185558215610c48579182015b82811115610c47578251825591602001919060010190610c2c565b5b509050610c559190610c7c565b5090565b604051806060016040528060008152602001600081526020016000151581525090565b5b80821115610c95576000816000905550600101610c7d565b5090565b6000604051905090565b600080fd5b600080fd5b600080fd5b600080fd5b6000601f19601f8301169050919050565b7f4e487b7100000000000000000000000000000000000000000000000000000000600052604160045260246000fd5b610d0082610cb7565b810181811067ffffffffffffffff82111715610d1f57610d1e610cc8565b5b80604052505050565b6000610d32610c99565b9050610d3e8282610cf7565b919050565b600067ffffffffffffffff821115610d5e57610d5d610cc8565b5b610d6782610cb7565b9050602081019050919050565b82818337600083830152505050565b6000610d96610d9184610d43565b610d28565b905082815260208101848484011115610db257610db1610cb2565b5b610dbd848285610d74565b509392505050565b600082601f830112610dda57610dd9610cad565b5b8135610dea848260208601610d83565b91505092915050565b600060208284031215610e0957610e08610ca3565b5b600082013567ffffffffffffffff811115610e2757610e26610ca8565b5b610e3384828501610dc5565b91505092915050565b6000819050919050565b610e4f81610e3c565b82525050565b6000602082019050610e6a6000830184610e46565b92915050565b600081519050919050565b600082825260208201905092915050565b6000819050602082019050919050565b600073ffffffffffffffffffffffffffffffffffffffff82169050919050565b6000610ec782610e9c565b9050919050565b610ed781610ebc565b82525050565b600081519050919050565b600082825260208201905092915050565b60005b83811015610f17578082015181840152602081019050610efc565b83811115610f26576000848401525b50505050565b6000610f3782610edd565b610f418185610ee8565b9350610f51818560208601610ef9565b610f5a81610cb7565b840191505092915050565b610f6e81610e3c565b82525050565b6000606083016000830151610f8c6000860182610ece565b5060208301518482036020860152610fa48282610f2c565b9150506040830151610fb96040860182610f65565b508091505092915050565b6000610fd08383610f74565b905092915050565b6000602082019050919050565b6000610ff082610e70565b610ffa8185610e7b565b93508360208202850161100c85610e8c565b8060005b8581101561104857848403895281516110298582610fc4565b945061103483610fd8565b925060208a01995050600181019050611010565b50829750879550505050505092915050565b600060208201905081810360008301526110748184610fe5565b905092915050565b60008115159050919050565b6110918161107c565b82525050565b6060820160008201516110ad6000850182610f65565b5060208201516110c06020850182610f65565b5060408201516110d36040850182611088565b50505050565b60006060820190506110ee6000830184611097565b92915050565b6110fd81610e3c565b811461110857600080fd5b50565b60008135905061111a816110f4565b92915050565b60006020828403121561113657611135610ca3565b5b60006111448482850161110b565b91505092915050565b600082825260208201905092915050565b600061116982610edd565b611173818561114d565b9350611183818560208601610ef9565b61118c81610cb7565b840191505092915050565b600060208201905081810360008301526111b1818461115e565b905092915050565b7f536f7272792c206f6e6c79206d616e61676572732063616e2063616c6c20746860008201527f69732066756e6374696f6e2e0000000000000000000000000000000000000000602082015250565b6000611215602c8361114d565b9150611220826111b9565b604082019050919050565b6000602082019050818103600083015261124481611208565b9050919050565b7f536f7272792c207468652062657420697320616c72656164792066696e69736860008201527f65642e0000000000000000000000000000000000000000000000000000000000602082015250565b60006112a760238361114d565b91506112b28261124b565b604082019050919050565b600060208201905081810360008301526112d68161129a565b9050919050565b600081905092915050565b60006112f382610edd565b6112fd81856112dd565b935061130d818560208601610ef9565b80840191505092915050565b600061132582846112e8565b915081905092915050565b7f4e487b7100000000000000000000000000000000000000000000000000000000600052602260045260246000fd5b6000600282049050600182168061137757607f821691505b6020821081141561138b5761138a611330565b5b50919050565b7f4e487b7100000000000000000000000000000000000000000000000000000000600052603260045260246000fd5b7f4e487b7100000000000000000000000000000000000000000000000000000000600052601160045260246000fd5b60006113fa82610e3c565b915061140583610e3c565b9250817fffffffffffffffffffffffffffffffffffffffffffffffffffffffffffffffff048311821515161561143e5761143d6113c0565b5b828202905092915050565b7f4e487b7100000000000000000000000000000000000000000000000000000000600052601260045260246000fd5b600061148382610e3c565b915061148e83610e3c565b92508261149e5761149d611449565b5b828204905092915050565b6114b281610ebc565b82525050565b60006040820190506114cd60008301856114a9565b6114da6020830184610e46565b9392505050565b60006114ec82610e3c565b91507fffffffffffffffffffffffffffffffffffffffffffffffffffffffffffffffff82141561151f5761151e6113c0565b5b600182019050919050565b7f596f757220626574206d757374206265206174206c656173742031303020574560008201527f4900000000000000000000000000000000000000000000000000000000000000602082015250565b600061158660218361114d565b91506115918261152a565b604082019050919050565b600060208201905081810360008301526115b581611579565b9050919050565b7f596f75206d7573742063686f6f7365206174206c65617374206f6e652074656160008201527f6d20746f20626574206f6e2e0000000000000000000000000000000000000000602082015250565b6000611618602c8361114d565b9150611623826115bc565b604082019050919050565b600060208201905081810360008301526116478161160b565b9050919050565b7f546865207465616d20796f752063686f6f7365206973206e6f7420616c6c6f7760008201527f656420746f20626574206f6e0000000000000000000000000000000000000000602082015250565b60006116aa602c8361114d565b91506116b58261164e565b604082019050919050565b600060208201905081810360008301526116d98161169d565b9050919050565b60006116eb82610e3c565b91506116f683610e3c565b9250827fffffffffffffffffffffffffffffffffffffffffffffffffffffffffffffffff0382111561172b5761172a6113c0565b5b828201905092915050565b60008160011c9050919050565b6000808291508390505b600185111561178d57808604811115611769576117686113c0565b5b60018516156117785780820291505b808102905061178685611736565b945061174d565b94509492505050565b6000826117a65760019050611862565b816117b45760009050611862565b81600181146117ca57600281146117d457611803565b6001915050611862565b60ff8411156117e6576117e56113c0565b5b8360020a9150848211156117fd576117fc6113c0565b5b50611862565b5060208310610133831016604e8410600b84101617156118385782820a905083811115611833576118326113c0565b5b611862565b6118458484846001611743565b9250905081840481111561185c5761185b6113c0565b5b81810290505b9392505050565b600061187482610e3c565b915061187f83610e3c565b92506118ac7fffffffffffffffffffffffffffffffffffffffffffffffffffffffffffffffff8484611796565b90509291505056fea2646970667358221220ed40430550d8b14d9bf0e0c210d1015453b53a7aeed06847bc9b9575ad53e25d64736f6c634300080b0033",
  "immutableReferences": {},
  "source": "// SPDX-License-Identifier: MIT\n \npragma solidity ^0.8.11;\n\ncontract BettingSystem {\n\n    /*\n     Edge cases: DRAW => rollback all bets to refund all players\n    */   \n     \n    struct Bet {\n        address originAddress;\n        string team;\n        uint value;\n    }\n\n    struct TeamInfo {\n        uint totalValue;\n        uint totalBets;\n        bool isSet;\n    }\n\n    mapping(string => Bet[]) bets;\n    mapping(string => TeamInfo) teamInfo;\n\n    bool isBetActive = true;\n    address manager;\n    string[] public allowedTeams;\n\n    event PayoutTransfer(address to, uint value);\n \n     constructor(string[] memory _allowedTeams) {\n\n         manager = msg.sender;\n         allowedTeams = _allowedTeams;\n\n         for(uint i = 0; i < _allowedTeams.length; i++) {\n            teamInfo[_allowedTeams[i]] = TeamInfo({\n                totalValue: 0,\n                totalBets: 0,\n                isSet: true\n            });\n         }\n     }\n\n     function placeBet(string memory _team) public payable isActive {\n         require(msg.value >= 100, \"Your bet must be at least 100 WEI\");\n         require(bytes(_team).length > 0, \"You must choose at least one team to bet on.\");\n \n         if(!teamInfo[_team].isSet) {\n             revert(\"The team you choose is not allowed to bet on\");\n         }\n\n         bets[_team].push(Bet({\n             originAddress: msg.sender,\n             team: _team,\n             value: msg.value\n         }));\n         teamInfo[_team].totalValue += msg.value;\n         teamInfo[_team].totalBets++;\n     }\n\n     function getTeamBets(string memory _team) public view returns (Bet[] memory) {\n         return bets[_team];\n     }\n\n     function getTotalBetsBalance() public view returns (uint) {\n         return address(this).balance;\n     }\n\n     function getTeamBetInfo(string memory _team) public view returns (TeamInfo memory) {\n        return teamInfo[_team];\n     }\n\n     function pickWinner(string memory _winnerTeam) public isManager isActive {\n\n         Bet[] memory winnerBets = bets[_winnerTeam];\n\n         for(uint i = 0; i < winnerBets.length; i++) {\n\n            Bet memory bet = winnerBets[i];\n            \n            uint ratio = percent(bet.value, teamInfo[_winnerTeam].totalValue, 4);\n \n            uint payout = (getTotalBetsBalance() * ratio) / 10000;\n            \n            payable(bet.originAddress).transfer(payout);\n\n            emit PayoutTransfer(bet.originAddress, payout);\n\n            isBetActive = false;\n         }\n     }\n\n     function percent(uint numerator, uint denominator, uint precision) private pure returns(uint quotient) {\n         // caution, check safe-to-multiply here\n        uint _numerator  = numerator * 10 ** (precision+1);\n        // with rounding of last digit\n        uint _quotient =  ((_numerator / denominator) + 5) / 10;\n        return ( _quotient);\n    }\n\n    function emergencyWithdraw() public isManager {\n        payable(manager).transfer(getTotalBetsBalance());\n    }\n\n     modifier isManager() {\n         require(msg.sender == manager, \"Sorry, only managers can call this function.\");\n         _;\n     }\n\n     modifier isActive() {\n         require(isBetActive == true, \"Sorry, the bet is already finished.\");\n         _;\n     }\n\n}\n",
  "sourcePath": "/home/jonit/Programming/truffle-boilerplate/contracts/BettingSystem.sol",
  "compiler": {
    "name": "solc",
    "version": "0.8.11+commit.d7f03943.Emscripten.clang"
  },
  "schemaVersion": "3.4.4",
  "updatedAt": "2022-02-10T04:42:31.687Z",
  "networkType": "ethereum",
  "devdoc": {
    "kind": "dev",
    "methods": {},
    "version": 1
  },
  "userdoc": {
    "kind": "user",
    "methods": {},
    "version": 1
  }
}